{
  "contractName": "CashFlip",
  "abi": [
    {
      "inputs": [],
      "payable": true,
      "stateMutability": "payable",
      "type": "constructor"
    },
    {
      "anonymous": false,
      "inputs": [
        {
          "indexed": false,
          "internalType": "bool",
          "name": "",
          "type": "bool"
        }
      ],
      "name": "result",
      "type": "event"
    },
    {
      "constant": true,
      "inputs": [],
      "name": "owner",
      "outputs": [
        {
          "internalType": "address payable",
          "name": "",
          "type": "address"
        }
      ],
      "payable": false,
      "stateMutability": "view",
      "type": "function"
    },
    {
      "constant": true,
      "inputs": [],
      "name": "player",
      "outputs": [
        {
          "internalType": "address payable",
          "name": "",
          "type": "address"
        }
      ],
      "payable": false,
      "stateMutability": "view",
      "type": "function"
    },
    {
      "constant": true,
      "inputs": [],
      "name": "playerBalance",
      "outputs": [
        {
          "internalType": "uint256",
          "name": "",
          "type": "uint256"
        }
      ],
      "payable": false,
      "stateMutability": "view",
      "type": "function"
    },
    {
      "constant": true,
      "inputs": [],
      "name": "getBalance",
      "outputs": [
        {
          "internalType": "uint256",
          "name": "",
          "type": "uint256"
        }
      ],
      "payable": false,
      "stateMutability": "view",
      "type": "function"
    },
    {
      "constant": false,
      "inputs": [],
      "name": "depositETH",
      "outputs": [],
      "payable": true,
      "stateMutability": "payable",
      "type": "function"
    },
    {
      "constant": false,
      "inputs": [
        {
          "internalType": "uint256",
          "name": "_amount",
          "type": "uint256"
        }
      ],
      "name": "withdrawETH",
      "outputs": [],
      "payable": false,
      "stateMutability": "nonpayable",
      "type": "function"
    },
    {
      "constant": false,
      "inputs": [
        {
          "internalType": "uint256",
          "name": "_playerGuess",
          "type": "uint256"
        }
      ],
      "name": "randomFlip",
      "outputs": [],
      "payable": true,
      "stateMutability": "payable",
      "type": "function"
    }
  ],
  "bytecode": "0x6080604052336000806101000a81548173ffffffffffffffffffffffffffffffffffffffff021916908373ffffffffffffffffffffffffffffffffffffffff1602179055503373ffffffffffffffffffffffffffffffffffffffff163160015533600260006101000a81548173ffffffffffffffffffffffffffffffffffffffff021916908373ffffffffffffffffffffffffffffffffffffffff160217905550610663806100af6000396000f3fe6080604052600436106100705760003560e01c8063705265c11161004e578063705265c1146101225780638da5cb5b14610150578063f14210a6146101a7578063f6326fb3146101e257610070565b806312065fe01461007557806348db5f89146100a0578063651f066a146100f7575b600080fd5b34801561008157600080fd5b5061008a6101ec565b6040518082815260200191505060405180910390f35b3480156100ac57600080fd5b506100b56102ce565b604051808273ffffffffffffffffffffffffffffffffffffffff1673ffffffffffffffffffffffffffffffffffffffff16815260200191505060405180910390f35b34801561010357600080fd5b5061010c6102f3565b6040518082815260200191505060405180910390f35b61014e6004803603602081101561013857600080fd5b81019080803590602001909291905050506102f9565b005b34801561015c57600080fd5b50610165610414565b604051808273ffffffffffffffffffffffffffffffffffffffff1673ffffffffffffffffffffffffffffffffffffffff16815260200191505060405180910390f35b3480156101b357600080fd5b506101e0600480360360208110156101ca57600080fd5b810190808035906020019092919050505061043a565b005b6101ea610569565b005b6000600260009054906101000a900473ffffffffffffffffffffffffffffffffffffffff1673ffffffffffffffffffffffffffffffffffffffff163373ffffffffffffffffffffffffffffffffffffffff16146102b1576040517f08c379a000000000000000000000000000000000000000000000000000000000815260040180806020018281038252600a8152602001807f4e6f74206f776e6572210000000000000000000000000000000000000000000081525060200191505060405180910390fd5b3073ffffffffffffffffffffffffffffffffffffffff1631905090565b6000809054906101000a900473ffffffffffffffffffffffffffffffffffffffff1681565b60015481565b60008114806103085750600181145b61031157600080fd5b600234023073ffffffffffffffffffffffffffffffffffffffff16311161033757600080fd5b806002428161034257fe5b0614156103d4573373ffffffffffffffffffffffffffffffffffffffff166108fc600234029081150290604051600060405180830381858888f19350505050158015610392573d6000803e3d6000fd5b507f30d3b450a8c170d89bf5318a40efd2245a1a1cf1465443b7b1338e09524a4c846001604051808215151515815260200191505060405180910390a1610411565b7f30d3b450a8c170d89bf5318a40efd2245a1a1cf1465443b7b1338e09524a4c846000604051808215151515815260200191505060405180910390a15b50565b600260009054906101000a900473ffffffffffffffffffffffffffffffffffffffff1681565b600260009054906101000a900473ffffffffffffffffffffffffffffffffffffffff1673ffffffffffffffffffffffffffffffffffffffff163373ffffffffffffffffffffffffffffffffffffffff16146104fd576040517f08c379a000000000000000000000000000000000000000000000000000000000815260040180806020018281038252600a8152602001807f4e6f74206f776e6572210000000000000000000000000000000000000000000081525060200191505060405180910390fd5b600260009054906101000a900473ffffffffffffffffffffffffffffffffffffffff1673ffffffffffffffffffffffffffffffffffffffff166108fc829081150290604051600060405180830381858888f19350505050158015610565573d6000803e3d6000fd5b5050565b600260009054906101000a900473ffffffffffffffffffffffffffffffffffffffff1673ffffffffffffffffffffffffffffffffffffffff163373ffffffffffffffffffffffffffffffffffffffff161461062c576040517f08c379a000000000000000000000000000000000000000000000000000000000815260040180806020018281038252600a8152602001807f4e6f74206f776e6572210000000000000000000000000000000000000000000081525060200191505060405180910390fd5b56fea265627a7a723158203ef9614fa6b18bee17b75da440367380521860e7ee23e1a850051e63de5beb5d64736f6c634300050c0032",
  "source": "pragma solidity =0.5.12;\n\ncontract CashFlip {\n\n    //State Variables\n      address payable public player = msg.sender;\n      uint public playerBalance = address(msg.sender).balance;\n      address payable public owner;\n      event result (bool);\n\n    //Sets Owner Properties\nconstructor() public payable {owner = msg.sender;}\n\nmodifier onlyOwner() {require (msg.sender == owner, \"Not owner!\");\n_;}\n\n    //View Contract Balance\nfunction getBalance() public view onlyOwner returns (uint) {\n    return address(this).balance;}\n\n    //Deposit ETH to Contract\nfunction depositETH () public payable onlyOwner {}\n\n    //Withdraw ETH from Contract\nfunction withdrawETH (uint _amount) public onlyOwner {\n    owner.transfer(_amount);}\n\n    //Takes Input from Client-Side App & Determines Results\nfunction randomFlip (uint _playerGuess) public payable  {\n    require(_playerGuess == 0 || _playerGuess == 1);\n    require (address(this).balance > msg.value * 2);\n\n    if (now % 2 == _playerGuess) {\n        msg.sender.transfer(msg.value * 2);\n        emit result (true);}\n        else {emit result (false);}}\n}\n",
  "sourcePath": "C:\\Users\\dylan\\desktop\\BlockchainProjects\\cash-flip\\contracts\\CashFlip.sol",
  "compiler": {
    "name": "solc",
    "version": "0.5.12+commit.7709ece9.Emscripten.clang"
  },
  "schemaVersion": "3.0.23",
  "updatedAt": "2020-10-24T21:19:34.541Z",
  "networkType": "ethereum",
  "devdoc": {
    "methods": {}
  },
  "userdoc": {
    "methods": {}
  }
}